:100000000C9410030C9438030C9438030C943803AC
:100010000C9438030C9438030C9438030C94BE07EA
:100020000C9438030C9438030C9438030C94380364
:100030000C9438030C9438030C9438030C94380354
:100040000C94A5060C9438030C94870B0C9438037D
:100050000C9438030C9438030C9438030C94380334
:100060000C9438030C94380370617373776F726467
:1000700020696E76616C69640D0A002061646D69A7
:100080006E0D0A0070617373776F72642061636331
:1000900065707465640D0A596F7520617265206121
:1000A000206C6576656C20000D0A5665726966796C
:1000B000696E672E2E2E000D0A456E7465722061E2
:1000C000646D696E2070617373776F72643A20009B
:1000D0004572726F723A20696E636F7272656374F3
:1000E0002070696E0D0A005661756C7420756E6C17
:1000F0006F636B65642E2E2E0D0A0024262628C2FF
:10010000A3244B3B3B5B6C6576656C345D5B737520
:10011000706572626164395D2A2440237E7D0D0A18
:10012000004B4A484B462AC2A326247E46404647F7
:100130007B3A3E7C5C2E2121464A4B464853483050
:10014000303239320D0A004572726F723A20707285
:100150006F6365737320636C6F73656420756E6580
:10016000787065637465646C792E204D656D6F726F
:10017000792064756D703A0D0A004572726F722EA7
:1001800020446562756720746F6F6C732063616EC5
:10019000206F6E6C792062652072756E2062792006
:1001A00074686520666F6C6C6F77696E6720757315
:1001B00065723A2073797374656D0D0A0045727229
:1001C0006F723A2046696C65206E6F7420666F7599
:1001D0006E640D0A004572726F723A20596F752075
:1001E000646F206E6F742068617665207375666633
:1001F000696369656E742070726976696C6567659C
:100200007320746F2064656C65746520746869730D
:100210002066696C650D0A004572726F723A20594A
:100220006F7520646F206E6F74206861766520732F
:10023000756666696369656E742070726976696C4B
:100240006567657320746F2064656C6574652074E0
:100250006869732066696C650D0A0044656C657495
:1002600065642064656275672E6366670D0A0045E4
:1002700072726F723A2046696C65206E6F742066E8
:100280006F756E640D0A00616C6C6F7765645F75E5
:10029000736572203D2073797374656D3B0D0A00A0
:1002A00023436F6E66696775726174696F6E20664D
:1002B000696C6520666F7220646562756720746F73
:1002C0006F6C730D0A005468616E6B732C20536958
:1002D0006D6F6E0D0A00616E642074797065202266
:1002E0006475636B7922207768656E2070726F6D1C
:1002F0007074656420666F7220612070617373771B
:100300006F72642E0D0A00496620796F75206E6544
:100310006564206C6576656C20322061646D696E61
:10032000206A7573742072756E207468652061642C
:100330006D696E20636F6D6D616E640D0A004A6FAA
:10034000686E2C206A7573742066696E69736865BF
:10035000642073657474696E6720757020746865B5
:10036000207661756C742073797374656D2E0D0A37
:10037000004572726F723A20596F75206E65656420
:1003800020746F2062652061646D696E206C6576F3
:10039000656C203220746F2073686F7720746869F1
:1003A000732066696C650D0A00333A2079767A6F9E
:1003B000620D0A00323A20716870786C0D0A0031C3
:1003C0003A20636E66666A6265710D0A000D0A0066
:1003D0002361646D696E206C6576656C203A2065DA
:1003E0006E637279707465642070617373776F7275
:1003F000640D0A00235661756C74207379737465FB
:100400006D2070617373776F72642066696C650D1F
:100410000A0064656275672E6366672020202020CD
:10042000202020323220202020323031302D303137
:100430002D3239202032303A3539202073797374C7
:10044000656D0D0A007061737377642E7478742083
:10045000202020202034303820202020323031301D
:100460002D30312D3239202032303A35392020617B
:10047000646D696E0D0A00726561646D652E747835
:1004800074202020202020313130202020203230C4
:1004900031302D30312D3239202032303A3539206B
:1004A0002073696D6F6E0D0A002D2D2D2D2D2D2DB4
:1004B0002D2D2D2D2D2D2D2D2D2D2D2D2D2D2D2D6C
:1004C0002D2D2D2D2D2D2D2D2D2D2D2D2D2D2D2D5C
:1004D0002D2D2D2D2D2D2D2D2D0D0A0066696C65D0
:1004E0006E616D652020202020202073697A6520B0
:1004F000202020646174652020202020202020748A
:10050000696D652020206F776E65720D0A000D0AF7
:1005100041636D6520536563757265205661756C26
:10052000742076312E3030200D0A436F6D6D616E70
:1005300064206C6973743A0D0A00293A20006164E2
:100540006D696E407661756C7428000D0A45727293
:100550006F723A20596F7520646F206E6F74206837
:100560006176652073756666696369656E7420706F
:10057000726976696C6567657320746F206578654C
:1005800063757465207468617420636F6D6D616E4E
:10059000642E0D0A000D2020202D2D2D57656C6333
:1005A0006F6D6520746F2041636D652042616E6BD5
:1005B00020536563757265205661756C742D2D2D01
:1005C0000D0A000200000000240027002A0000009D
:1005D0000000250028002B0000000000230026005A
:1005E00029000404040404040404020202020202B6
:1005F00003030303030301020408102040800102E7
:100600000408102001020408102000000007000266
:100610000100000304060000000000000000180DA7
:1006200011241FBECFEFD4E0DEBFCDBF12E0A0E0AB
:10063000B1E0E0E1FEE102C005900D92A23FB107FA
:10064000D9F713E0A2EFB2E001C01D92AF3CB107B1
:10065000E1F716E0C0E2D6E004C02297FE010E9456
:10066000F90ECE31D107C9F70E94280A0C94060F63
:100670000C940000EF92FF920F931F93CF93DF93A0
:10068000C0E0D0E0FE01E256FD4F6081718188EE4E
:1006900093E00E94930E7B01FE01EA56FD4F6081BC
:1006A00071810027F7FC0095102F80916A02A80144
:1006B00097010E941208C801B7010E94850D26E625
:1006C00036E646EA5FE30E94110E0E94520D88272B
:1006D00077FD8095982F0E94ED062296C031D105B6
:1006E00089F6DF91CF911F910F91FF90EF900895C0
:1006F000EF92FF920F931F93CF93DF93C0E0D0E070
:10070000FE01EA57FD4F6081718188EE93E00E94FF
:10071000930E7B01FE01EA58FD4F60817181002735
:10072000F7FC0095102F80916A02A80197010E94A2
:100730001208C801B7010E94850D26E636E646EA92
:100740005FE30E94110E0E94520D882777FD80956D
:10075000982F0E94ED062296C031D10589F6DF91CF
:10076000CF911F910F91FF90EF900895CF93DF935A
:10077000EC01009739F40BC08CEB93E040E050E0C3
:100780000E94510BFE01219664916623A9F7DF9127
:10079000CF910895EF92FF921F93CF93DF937C0147
:1007A00088EA90E00E94B60364EF71E080E090E098
:1007B0000E94ED0610E01EC0C7010E94FD0E0097CA
:1007C000C1F42196D093F302C093F20284E890E042
:1007D0000E94B6036091F2027091F3028CEB93E0F9
:1007E0004AE050E00E943E0B8BE790E00E94B60387
:1007F00013C01F5FC12FD0E0FE01EE0FFF1FE259B3
:10080000FD4F6081718161157105B1F688E690E058
:100810000E94B6030E943A0380E090E0DF91CF91FE
:100820001F91FF90EF90089581E08093F40287EB91
:1008300090E00E94B60380E090E00895FC01808182
:10084000918160E071E00E94FD0E009759F587EEFE
:1008500090E00E94B60380916C0261E00E947107F3
:100860008091660261E00E9471078091680260E0F9
:100870000E9471070E94780368E873E180E090E0CD
:100880000E94ED0680916C0260E00E9471078091E9
:10089000660260E00E9471078091680261E00E9438
:1008A000710704C080ED90E00E94B60380E090E004
:1008B00008958091A602882319F08AE791E00AC082
:1008C00087E491E00E94B60381E291E00E94B603C2
:1008D0008BEF90E00E94B60380E090E00895CF9304
:1008E000DF93FC01C081D181CE0165E071E00E94FF
:1008F000FD0E009791F48091A602882371F08091FB
:10090000F2029091F30203972CF01092A6028BE56D
:1009100092E016C088E192E013C0CE016FE071E072
:100920000E94FD0E009739F0CE016AE171E00E944D
:10093000FD0E009719F485ED91E002C08DEB91E07A
:100940000E94B60380E090E0DF91CF910895CF93AD
:10095000DF93FC01C081D181CE016FE071E00E9484
:10096000FD0E009701F58091F2029091F30202973B
:10097000BCF084EF93E00E94B60380ED93E00E9408
:10098000B6038DEC93E00E94B6038FEB93E00E94D8
:10099000B60384EB93E00E94B60389EA93E02DC08E
:1009A00081E793E02AC0CE016AE171E00E94FD0E6A
:1009B000009779F48EE393E00E94B60387E093E01A
:1009C0000E94B60386ED92E00E94B60386EC92E0A8
:1009D00014C0CE0165E071E00E94FD0E009759F44D
:1009E0008091A602882339F080EA92E00E94B60343
:1009F00087E892E002C08FE692E00E94B60380E0B2
:100A000090E0DF91CF9108958CED94E00E94B603C1
:100A100089EA94E00E94B60387E794E00E94B60357
:100A200085E494E00E94B6038091A602882321F019
:100A300082E194E00E94B60380E090E00895CF93B5
:100A4000DF938EE095E00E94B603C8EAD2E011C0C1
:100A50008CEB93E00E94660A8CEB93E065E271E018
:100A60000E94660A6A817B818CEB93E00E947C0B7A
:100A70002896688179816115710551F780E090E0D1
:100A8000DF91CF9108958091F2029091F3021816B0
:100A9000190634F081E08093F40287EB90E016C0F1
:100AA0008CEB93E067E271E00E94660A8EE395E0CA
:100AB0000E94B6036091F2027091F3028CEB93E016
:100AC0004AE050E00E943E0B8AE395E00E94B603A4
:100AD00008951092F50280E2E6EFF2E0DF011D9248
:100AE0008A95E9F7109216031092170310921803D3
:100AF000109219030895EF92FF920F931F93CF93D3
:100B0000DF93E0911603F0911703309719F080817D
:100B1000882311F4EE240EC0E0911803F09119031C
:100B2000309731F08081882319F032E0E32E02C043
:100B3000EE24E3948091F402882311F4FF2431C061
:100B40001092F40286EF92E00E94CA033BC086EF47
:100B500092E00E94FD0E009719F523E0CC0FDD1FF7
:100B60002A95E1F7C455DD4F2091F2023091F3024E
:100B7000888199812817390774F08CEB93E00E94E3
:100B8000650BD8011696ED91FC91179786E193E0DD
:100B90006E2D099517C08BE495E00E94B6031AC02C
:100BA000F394CF2DD0E08E0193E0000F111F9A95A2
:100BB000E1F708551D4FF8016081718161157105DC
:100BC00031F608C0882331F08CEB93E06AE271E0E3
:100BD0000E947C0B0E9469058091F402882311F425
:100BE0000E944305DF91CF911F910F91FF90EF90ED
:100BF00008956BC08CEB93E00E94D10C682F90910C
:100C0000F502992339F46D3041F41092F4020E94F8
:100C100043055BC06D3009F456C06032B9F5809170
:100C2000F402882399F5E92FF0E0EA50FD4F829114
:100C30003196882309F449C01082E92FEF5FE093D1
:100C4000F5028091160390911703892B19F4A0E007
:100C5000B0E008C08091180390911903892B99F492
:100C6000A1E0B0E0AA0FBB1FAA5EBC4F8E2F90E0A0
:100C70008A509D4F8D939C938CEB93E063E371E0DE
:100C80000E94660A22C00E947B050895E92FF0E0C9
:100C9000EA50FD4F60839F5F9093F5028091F402CC
:100CA000882339F08CEB93E065E371E00E94660ADB
:100CB00006C08CEB93E040E050E00E94510B809125
:100CC000F5028F3111F40E947B058CEB93E00E94BA
:100CD000BD0C882309F08ECF08950E94F905089570
:100CE0000F931F930CEB13E0C80140E855E260E05E
:100CF00070E00E94C40BC8010E94F90C0E946905B3
:100D000085E995E00E94B6030E9443051F910F916B
:100D1000089580916C0261E00E9451078091660203
:100D200061E00E9451078091680261E00E945107D2
:100D300080916A0261E00E9451078091680261E03F
:100D40000E9471070E94700608951F920F920FB6BD
:100D50000F9211242F933F938F939F93AF93BF9341
:100D600080911E0390911F03A0912003B091210355
:100D7000309122030196A11DB11D232F2D5F2D3728
:100D800020F02D570196A11DB11D209322038093C1
:100D90001E0390931F03A0932003B093210380911F
:100DA0001A0390911B03A0911C03B0911D0301969F
:100DB000A11DB11D80931A0390931B03A0931C03E4
:100DC000B0931D03BF91AF919F918F913F912F9150
:100DD0000F900FBE0F901F901895EF92FF920F93F8
:100DE0001F937B018C018FB7F89440911E035091A3
:100DF0001F0360912003709121038FBF2FB7F894D8
:100E000080911E0390911F03A0912003B0912103B4
:100E10002FBF841B950BA60BB70BE816F9060A0724
:100E20001B0760F71F910F91FF90EF900895789442
:100E300084B5826084BD84B5816084BD85B58260DF
:100E400085BD85B5816085BDEEE6F0E0808181607D
:100E50008083E1E8F0E0808182608083808181602E
:100E60008083E0E8F0E0808181608083E1EBF0E066
:100E7000808184608083E0EBF0E08081816080830A
:100E8000EAE7F0E0808184608083808182608083F3
:100E90008081816080838081806880831092C1001E
:100EA0000895282F30E0C9018A509A4FFC0194918F
:100EB0002E513A4FF9018491882391F0E82FF0E008
:100EC000EE0FFF1FEC53FA4FA591B491662329F45E
:100ED0008C91909589238C9308958C91892B8C9378
:100EE0000895482F50E0CA01865F994FFC01249174
:100EF000CA018A509A4FFC0194914E515A4FFA01FF
:100F000034913323D1F1222331F1233021F4809124
:100F100080008F7705C0243031F4809180008F7D70
:100F20008093800018C0213019F484B58F7704C0F5
:100F3000223021F484B58F7D84BD0DC0263021F48C
:100F40008091B0008F7705C0273029F48091B000E0
:100F50008F7D8093B000E32FF0E0EE0FFF1FE25390
:100F6000FA4FA591B491662329F48C919095892329
:100F70008C9308958C91892B8C9308951F920F92D6
:100F80000FB60F9211248F939F93AF93BF93EF935C
:100F9000FF938091310390913203A0913303B0917C
:100FA0003403E0913503F09136030097A105B105B4
:100FB00031F18081909137038927808380913103BB
:100FC00090913203A0913303B0913403181619069F
:100FD0001A061B06E4F48091310390913203A0912C
:100FE0003303B09134030197A109B1098093310310
:100FF00090933203A0933303B093340308C010924C
:101000007000908180913703809589238083FF91C0
:10101000EF91BF91AF919F918F910F900FBE0F9065
:101020001F9018952F923F925F926F927F928F92AE
:101030009F92AF92BF92CF92DF92EF92FF920F9367
:101040001F93DF93CF9300D000D0CDB7DEB7A82F8A
:101050001B0129833A834B835C838091A7028A1703
:1010600021F4E3ECF5E0549082C08F3F09F0DAC13F
:10107000A093A702E3ECF5E054902FEF521609F489
:10108000D1C181E0581639F192E0591609F449C0EE
:10109000552009F06CC014BC15BC84B5826084BDB9
:1010A00085B5816085BD2A2F30E0F901EE51FA4FF8
:1010B000E491F0E0EE0FFF1FE253FA4F8591949117
:1010C00090932803809327032A503A4FF901849183
:1010D000809329034EC0109280001092810080916D
:1010E000810088608093810080918100816080937D
:1010F00081002A2F30E0F901EE51FA4FE491F0E03F
:10110000EE0FFF1FE253FA4F8591949190932F03B6
:1011100080932E032A503A4FF90184918093300333
:1011200028C01092B0001092B1008091B00082608F
:101130008093B0008091B10081608093B1002A2F2C
:1011400030E0F901EE51FA4FE491F0E0EE0FFF1FAD
:10115000E253FA4F8591949190933603809335032F
:101160002A503A4FF90184918093370302C057FC0B
:1011700059C18A2F61E00E945107552021F0F2E009
:101180005F1609F0BEC031018824992460E072E145
:101190008AE790E0A40193010E94C80E59016A01F8
:1011A000860175010894E108F108010911092FEF82
:1011B000E216F1040105110509F008F499C060E494
:1011C00072E48FE090E0A40193010E94C80E7901BF
:1011D0008A010894E108F1080109110982E0581612
:1011E000C1F49FEFE916F1040105110509F008F4B7
:1011F00084C060E970ED83E090E0A40193010E9457
:10120000C80E79018A010894E108F1080109110961
:1012100083E0AFEFEA16F1040105110509F008F4C7
:1012200068C068E478EE81E090E0A40193010E9438
:10123000C80E79018A010894E108F1080109110931
:10124000552011F483E01DC0B2E05B1611F084E07C
:1012500018C0EFEFEE16F1040105110509F008F4CE
:10126000DFC064E274EF80E090E0A40193010E948B
:10127000C80E79018A010894E108F10801091109F1
:1012800085E0FFEFEF16F1040105110591F188F1FA
:1012900062E17AE780E090E0A40193010E94C80E29
:1012A00079018A010894E108F10801091109552022
:1012B00011F086E001C084E02FEFE216F104010591
:1012C0001105B9F0B0F0C601B50120E034E040E00E
:1012D00050E00E94C80E79018A010894E108F108E3
:1012E00001091109552011F087E008C085E003C00D
:1012F00081E0552019F485BD3AC082E08093B100A9
:1013000036C05101CC24DD2460E072E18AE790E030
:10131000A60195010E94C80E79018A010894E1088E
:10132000F1080109110980E0E81680E0F80681E083
:10133000080780E0180710F491E010C068E478EE28
:1013400081E090E0A60195010E94C80E79018A0112
:101350000894E108F1080109110993E0A1E05A1687
:1013600031F480918100887F982B9093810089814E
:101370009A81AB81BC810097A105B10529F48FEF5B
:101380009FEFAFEFBFEF13C0220C331CB10180E021
:1013900090E029813A814B815C810E94740E28EE95
:1013A00033E040E050E00E94A60EC901DA01E1E01E
:1013B0005E16A1F0F2E05F1619F1552099F5E7BC31
:1013C0008093230390932403A0932503B0932603D3
:1013D00080916E00826080936E0024C0F09289003C
:1013E000E092880080932A0390932B03A0932C0310
:1013F000B0932D0380916F00826080936F0012C0C4
:10140000E092B3008093310390933203A0933303AF
:10141000B09334038091700082608093700002C0AA
:1014200084E06CCF0F900F900F900F90CF91DF91D1
:101430001F910F91FF90EF90DF90CF90BF90AF90F2
:101440009F908F907F906F905F903F902F90089526
:101450000E9417070E9489060E946D06FDCF0F9318
:101460001F93CF93DF938C01EB0109C02196D80124
:10147000ED91FC910190F081E02DC8010995688102
:101480006623A1F7DF91CF911F910F910895EF92FD
:10149000FF920F931F93CF93DF938C017B01EA019F
:1014A0000CC0D7016D917D01D801ED91FC910190A7
:1014B000F081E02DC80109952197209791F7DF91E0
:1014C000CF911F910F91FF90EF900895DC01ED9166
:1014D000FC910280F381E02D099508952F923F92AF
:1014E0004F925F926F927F928F929F92AF92BF9234
:1014F000CF92DF92EF92FF920F931F93DF93CF93E0
:10150000CDB7DEB7A0970FB6F894DEBF0FBECDBF44
:101510001C016A017B01411551056105710549F402
:1015200040E350E060E070E020E030E00E94080B13
:1015300056C0882499245401422E552466247724C9
:1015400001E010E00C0F1D1F080D191DC701B601A9
:10155000A30192010E94A60EF80160830894811CE9
:10156000911CA11CB11CC701B601A30192010E94EC
:10157000A60EC901DA016C017D01C114D104E10498
:10158000F104F1F681E0E82EF12CEC0EFD1EE80CE2
:10159000F91C3E010894611C711CD501C40101971E
:1015A000A109B1096C01C818D90816C0F601EE0DE1
:1015B000FF1D40814A3010F4405D01C0495C552751
:1015C00047FD5095652F752FC10120E030E00E9446
:1015D000080B0894E108F1086E147F0439F7A0960F
:1015E0000FB6F894DEBF0FBECDBFCF91DF911F9134
:1015F0000F91FF90EF90DF90CF90BF90AF909F90B2
:101600008F907F906F905F904F903F902F900895B4
:10161000EF92FF920F931F93CF93DF93EC017A0128
:101620008B012115310541F4E881F9810190F081A8
:10163000E02D642F09951BC02A303105B1F477FFE6
:1016400010C04DE250E060E070E020E030E00E9429
:10165000080B10950095F094E094E11CF11C011D1D
:10166000111DCE01B801A7012AE00E946E0ADF9188
:10167000CF911F910F91FF90EF900895EF92FF92FD
:101680000F931F937B019A010027F7FC0095102F01
:10169000B801A7010E94080B1F910F91FF90EF90D6
:1016A0000895EF92FF920F931F93E62E9A01FF2465
:1016B000E7FCF0940F2D1F2DB801A7010E94080B25
:1016C0001F910F91FF90EF9008950F931F938C013E
:1016D0004DE050E060E070E020E030E00E94080B58
:1016E000C8014AE050E060E070E020E030E00E9495
:1016F000080B1F910F9108950F931F938C010E9467
:10170000660AC8010E94650B1F910F9108951F92F0
:101710000F920FB60F9211242F933F934F935F9325
:101720006F937F938F939F93AF93BF93EF93FF93A9
:101730004091C600E091B803F091B903CF01019642
:1017400060E870E00E94930E9C018091BA03909132
:10175000BB032817390739F0E85CFC4F408330930E
:10176000B9032093B803FF91EF91BF91AF919F917F
:101770008F917F916F915F914F913F912F910F903A
:101780000FBE0F901F9018955F926F927F928F926D
:101790009F92AF92BF92CF92DF92EF92FF920F9300
:1017A0001F93CF93DF93EC013A014B01413482E464
:1017B00058078FE0680780E078070CF07FC060E88A
:1017C00074E88EE190E0A40193010E94C80E2150BC
:1017D000304040405040CA01B90122E030E040E0D2
:1017E00050E00E94C80E59016A01A601950120959A
:1017F00030954095509594E0220F331F441F551F9C
:101800009A95D1F760E074E284EF90E00E94C80EF0
:10181000CA01B9012FEF30E040E050E00E94740EA1
:10182000A40193010E94C80EC90181509F4F181650
:1018300019061CF4522E5A9403C055245394521A7C
:1018400060E079E08DE390E0A40193010E94C80E6E
:101850002150304040405040CA01B90122E030E000
:1018600040E050E00E94C80E20953095409550957C
:1018700083E0220F331F441F551F8A95D1F760E084
:1018800074E284EF90E00E94C80ECA01B9012FEF04
:1018900030E040E050E00E94740EA40193010E94E9
:1018A000C80EC90181509F4F181619061CF4822FCB
:1018B000815002C081E0821B851500F5E885F9851D
:1018C00081E090E00A8802C0880F991F0A94E2F72D
:1018D000808360E079E08DE390E0A40193010E94B1
:1018E000C80E2150304040405040CA01B90122E0AA
:1018F00030E040E050E00E94C80E04C0E885F98561
:1019000010829501EC81FD813083EE81FF8120837F
:10191000EA85FB85208141E050E0CA010E8402C0C7
:10192000880F991F0A94E2F7282B2083EA85FB850C
:101930002081CA010F8402C0880F991F0A94E2F720
:10194000282B2083EA85FB858081088802C0440F0C
:10195000551F0A94E2F7842B8083DF91CF911F916A
:101960000F91FF90EF90DF90CF90BF90AF909F903E
:101970008F907F906F905F900895DC011296ED91AB
:10198000FC911397E058FF4F8191919180589F4FA0
:1019900020813181821B930B60E870E00E94930EDE
:1019A0000895CF93DF93DC011296ED91FC9113978C
:1019B000EF01CE57DF4F48815981E058FF4F8081BA
:1019C0009181E058F0408417950719F42FEF3FEF0D
:1019D0000CC0E40FF51F2081CA01019660E870E099
:1019E0000E94930E9983888330E0C901DF91CF91E3
:1019F0000895DC011296ED91FC911397EE57FF4F7D
:101A000080819181929382930895FC01A085B18594
:101A100021898C9190E0022E02C0959587950A94B9
:101A2000E2F780FFF6CF0484F585E02D608308950A
:101A30008CEE92E09093BD038093BC0388E393E027
:101A40009093BF038093BE0385EC90E09093C10315
:101A50008093C00384EC90E09093C3038093C2030F
:101A600080EC90E09093C5038093C40381EC90E0F8
:101A70009093C7038093C60386EC90E09093C903CC
:101A80008093C80384E08093CA0383E08093CB03F0
:101A900087E08093CC0385E08093CD0381E0809341
:101AA000CE03089504D06894B111B5C0089598D0BC
:101AB00088F09F5790F0B92F9927B751A0F0D1F037
:101AC000660F771F881F991F1AF0BA95C9F712C0C1
:101AD000B13081F09FD0B1E008959CC0672F782F7E
:101AE0008827B85F39F0B93FCCF38695779567952D
:101AF000B395D9F73EF490958095709561957F4F99
:101B00008F4F9F4F0895E89409C097FB3EF490953E
:101B10008095709561957F4F8F4F9F4F9923A9F0C6
:101B2000F92F96E9BB279395F69587957795679555
:101B3000B795F111F8CFFAF4BB0F11F460FF1BC099
:101B40006F5F7F4F8F4F9F4F16C0882311F096E92C
:101B500011C0772321F09EE8872F762F05C06623DA
:101B600071F096E8862F70E060E02AF09A95660F93
:101B7000771F881FDAF7880F9695879597F908954C
:101B800097F99F6780E870E060E008959FEF80EC30
:101B9000089500240A9416161706180609060895D3
:101BA00000240A9412161306140605060895092E39
:101BB0000394000C11F4882352F0BB0F40F4BF2BA8
:101BC00011F460FF04C06F5F7F4F8F4F9F4F0895E8
:101BD00057FD9058440F551F59F05F3F71F04795DE
:101BE000880F97FB991F61F09F3F79F087950895C3
:101BF000121613061406551FF2CF4695F1DF08C0E2
:101C0000161617061806991FF1CF869571056105FE
:101C100008940895E894BB2766277727CB0197F9A6
:101C200008950BD0C4CFB5DF28F0BADF18F09523A4
:101C300009F0A6CFABCF1124EECFCADFA0F3959F5A
:101C4000D1F3950F50E0551F629FF001729FBB27A3
:101C5000F00DB11D639FAA27F00DB11DAA1F649F4F
:101C60006627B00DA11D661F829F2227B00DA11D02
:101C7000621F739FB00DA11D621F839FA00D611D88
:101C8000221F749F3327A00D611D231F849F600DA9
:101C9000211D822F762F6A2F11249F5750408AF0E2
:101CA000E1F088234AF0EE0FFF1FBB1F661F771F6E
:101CB000881F91505040A9F79E3F510570F060CFAA
:101CC000AACF5F3FECF3983EDCF386957795679556
:101CD000B795F795E7959F5FC1F7FE2B880F911D8C
:101CE0009695879597F90895629FD001739FF001AB
:101CF000829FE00DF11D649FE00DF11D929FF00D9C
:101D0000839FF00D749FF00D659FF00D9927729FD2
:101D1000B00DE11DF91F639FB00DE11DF91FBD015D
:101D2000CF011124089597FB092E07260AD077FDCD
:101D300004D049D006D000201AF4709561957F4FE9
:101D40000895F6F7909581959F4F0895A1E21A2E78
:101D5000AA1BBB1BFD010DC0AA1FBB1FEE1FFF1F4F
:101D6000A217B307E407F50720F0A21BB30BE40B9F
:101D7000F50B661F771F881F991F1A9469F76095E6
:101D80007095809590959B01AC01BD01CF010895A0
:101D900097FB092E05260ED057FD04D0D7DF0AD0B9
:101DA000001C38F450954095309521953F4F4F4F8A
:101DB0005F4F0895F6F790958095709561957F4FE8
:101DC0008F4F9F4F0895AA1BBB1B51E107C0AA1F4D
:101DD000BB1FA617B70710F0A61BB70B881F991FCC
:101DE0005A95A9F780959095BC01CD010895EE0F05
:101DF000FF1F0590F491E02D0994FB01DC018D910A
:101E0000019080190110D9F3990B0895F894FFCF30
:101E1000353637380064656275672E636667007013
:101E200061737377642E74787400726561646D6594
:101E30002E7478740009000D0A000D0A4572726F45
:101E4000723A0020002A0070617373776F72640029
:101E50006475636B79006C696D626F007375706592
:101E600072626164390068656C7000097468697336
:101E70002068656C702073637265656E006C6973B1
:101E8000740009646973706C61792061206C6973F6
:101E900074206F662066696C6573206F6E207468AD
:101EA000652073797374656D0073686F77000973CB
:101EB000686F772074686520636F6E74656E7473E5
:101EC000206F6620612066696C652E2055736167FE
:101ED000653A2073686F77205B66696C656E616D2B
:101EE000655D0064656C000964656C6574652061FE
:101EF0002066696C652E2055736167653A206465BC
:101F00006C205B66696C656E616D655D0061646D1A
:101F1000696E000972652D61757468656E74696318
:101F20006174652061732061646D696E006465622F
:101F30007567000972756E20646562756720746F3D
:101F40006F6C7300756E6C6F636B0009756E6C6FF0
:101F5000636B207661756C742E2055736167653AEA
:101F600020756E6C6F636B205B34206469676974E5
:101F70002070696E5D000D000C0009000A00370139
:101F8000400146014C010601C400C400DC00C4004D
:101F90000000F70006010400080008000400040027
:101FA00004000400040026019300490025000400F9
:101FB00004000400010001FF56015B0101001F0540
:101FC0006D0172010100040599019E010100A70441
:101FD000D301D70102006F04FD01030201001404C4
:101FE0001D0223020100590434023B0204001E04B6
:101FF000000000000000000000000000050D2F0A96
:02200000470A8D
:00000001FF
